{
  "_format": "hh-sol-artifact-1",
  "contractName": "Superstream",
  "sourceName": "contracts/Superstream.sol",
  "abi": [
    {
      "inputs": [],
      "stateMutability": "nonpayable",
      "type": "constructor"
    },
    {
      "anonymous": false,
      "inputs": [
        {
          "components": [
            {
              "internalType": "uint256",
              "name": "createdAt",
              "type": "uint256"
            },
            {
              "internalType": "string",
              "name": "topic",
              "type": "string"
            },
            {
              "internalType": "string",
              "name": "message",
              "type": "string"
            },
            {
              "internalType": "string",
              "name": "senderUsername",
              "type": "string"
            },
            {
              "internalType": "address",
              "name": "senderAddress",
              "type": "address"
            }
          ],
          "indexed": false,
          "internalType": "struct Superstream.Comment",
          "name": "comment",
          "type": "tuple"
        },
        {
          "indexed": true,
          "internalType": "string",
          "name": "topic",
          "type": "string"
        },
        {
          "indexed": false,
          "internalType": "uint256",
          "name": "createdAt",
          "type": "uint256"
        }
      ],
      "name": "CommentAdded",
      "type": "event"
    },
    {
      "anonymous": false,
      "inputs": [
        {
          "indexed": true,
          "internalType": "string",
          "name": "_from",
          "type": "string"
        },
        {
          "indexed": true,
          "internalType": "string",
          "name": "_to",
          "type": "string"
        }
      ],
      "name": "Followed",
      "type": "event"
    },
    {
      "anonymous": false,
      "inputs": [
        {
          "indexed": true,
          "internalType": "address",
          "name": "creator",
          "type": "address"
        },
        {
          "indexed": false,
          "internalType": "string",
          "name": "newTitle",
          "type": "string"
        }
      ],
      "name": "LivestreamInfoUpdated",
      "type": "event"
    },
    {
      "anonymous": false,
      "inputs": [
        {
          "components": [
            {
              "internalType": "uint256",
              "name": "id",
              "type": "uint256"
            },
            {
              "internalType": "uint256",
              "name": "subscriptionCharge",
              "type": "uint256"
            },
            {
              "internalType": "uint256",
              "name": "subscribersCount",
              "type": "uint256"
            },
            {
              "internalType": "bool",
              "name": "isOnlySubscribers",
              "type": "bool"
            },
            {
              "internalType": "string",
              "name": "username",
              "type": "string"
            },
            {
              "internalType": "string",
              "name": "bio",
              "type": "string"
            },
            {
              "internalType": "string",
              "name": "pfp",
              "type": "string"
            },
            {
              "internalType": "string",
              "name": "streamId",
              "type": "string"
            },
            {
              "internalType": "string",
              "name": "defaultTitle",
              "type": "string"
            },
            {
              "internalType": "string",
              "name": "defaultThumbnail",
              "type": "string"
            },
            {
              "internalType": "string[]",
              "name": "followers",
              "type": "string[]"
            },
            {
              "internalType": "string[]",
              "name": "follows",
              "type": "string[]"
            },
            {
              "internalType": "address",
              "name": "owner",
              "type": "address"
            }
          ],
          "indexed": false,
          "internalType": "struct Superstream.Profile",
          "name": "_profile",
          "type": "tuple"
        }
      ],
      "name": "ProfileCreated",
      "type": "event"
    },
    {
      "anonymous": false,
      "inputs": [
        {
          "indexed": false,
          "internalType": "uint256",
          "name": "streamNftId",
          "type": "uint256"
        },
        {
          "indexed": true,
          "internalType": "address",
          "name": "creator",
          "type": "address"
        }
      ],
      "name": "StreamPublished",
      "type": "event"
    },
    {
      "anonymous": false,
      "inputs": [
        {
          "indexed": true,
          "internalType": "address",
          "name": "from",
          "type": "address"
        },
        {
          "indexed": true,
          "internalType": "address",
          "name": "toAddress",
          "type": "address"
        },
        {
          "indexed": false,
          "internalType": "string",
          "name": "toUsername",
          "type": "string"
        },
        {
          "indexed": false,
          "internalType": "uint256",
          "name": "flowRate",
          "type": "uint256"
        }
      ],
      "name": "Subscribed",
      "type": "event"
    },
    {
      "anonymous": false,
      "inputs": [
        {
          "indexed": true,
          "internalType": "address",
          "name": "creator",
          "type": "address"
        },
        {
          "indexed": false,
          "internalType": "uint256",
          "name": "newFlowRate",
          "type": "uint256"
        }
      ],
      "name": "SubscriptionChargeUpdated",
      "type": "event"
    },
    {
      "anonymous": false,
      "inputs": [
        {
          "indexed": true,
          "internalType": "address",
          "name": "sender",
          "type": "address"
        },
        {
          "indexed": true,
          "internalType": "address",
          "name": "receiver",
          "type": "address"
        },
        {
          "indexed": false,
          "internalType": "uint256",
          "name": "amount",
          "type": "uint256"
        }
      ],
      "name": "Tipped",
      "type": "event"
    },
    {
      "anonymous": false,
      "inputs": [
        {
          "indexed": true,
          "internalType": "address",
          "name": "subscriber",
          "type": "address"
        },
        {
          "indexed": true,
          "internalType": "string",
          "name": "creator",
          "type": "string"
        }
      ],
      "name": "Unsubscribed",
      "type": "event"
    },
    {
      "anonymous": false,
      "inputs": [
        {
          "indexed": true,
          "internalType": "uint256",
          "name": "id",
          "type": "uint256"
        },
        {
          "indexed": false,
          "internalType": "address",
          "name": "viewer",
          "type": "address"
        }
      ],
      "name": "VideoViewed",
      "type": "event"
    },
    {
      "inputs": [
        {
          "internalType": "string",
          "name": "_topic",
          "type": "string"
        },
        {
          "internalType": "string",
          "name": "_message",
          "type": "string"
        }
      ],
      "name": "addComment",
      "outputs": [],
      "stateMutability": "nonpayable",
      "type": "function"
    },
    {
      "inputs": [
        {
          "internalType": "string",
          "name": "_username",
          "type": "string"
        },
        {
          "internalType": "string",
          "name": "_bio",
          "type": "string"
        },
        {
          "internalType": "string",
          "name": "_pfp",
          "type": "string"
        },
        {
          "internalType": "string",
          "name": "_streamId",
          "type": "string"
        },
        {
          "internalType": "string",
          "name": "_streamKey",
          "type": "string"
        }
      ],
      "name": "addProfile",
      "outputs": [],
      "stateMutability": "nonpayable",
      "type": "function"
    },
    {
      "inputs": [
        {
          "internalType": "uint256",
          "name": "_streamNftId",
          "type": "uint256"
        },
        {
          "internalType": "string",
          "name": "_sessionId",
          "type": "string"
        },
        {
          "internalType": "bool",
          "name": "_isSubscribersOnly",
          "type": "bool"
        }
      ],
      "name": "addStream",
      "outputs": [],
      "stateMutability": "nonpayable",
      "type": "function"
    },
    {
      "inputs": [
        {
          "internalType": "string",
          "name": "_to",
          "type": "string"
        }
      ],
      "name": "follow",
      "outputs": [],
      "stateMutability": "nonpayable",
      "type": "function"
    },
    {
      "inputs": [
        {
          "internalType": "string",
          "name": "_topic",
          "type": "string"
        }
      ],
      "name": "getComments",
      "outputs": [
        {
          "components": [
            {
              "internalType": "uint256",
              "name": "createdAt",
              "type": "uint256"
            },
            {
              "internalType": "string",
              "name": "topic",
              "type": "string"
            },
            {
              "internalType": "string",
              "name": "message",
              "type": "string"
            },
            {
              "internalType": "string",
              "name": "senderUsername",
              "type": "string"
            },
            {
              "internalType": "address",
              "name": "senderAddress",
              "type": "address"
            }
          ],
          "internalType": "struct Superstream.Comment[]",
          "name": "",
          "type": "tuple[]"
        }
      ],
      "stateMutability": "view",
      "type": "function"
    },
    {
      "inputs": [],
      "name": "getProfileByAddress",
      "outputs": [
        {
          "components": [
            {
              "internalType": "uint256",
              "name": "id",
              "type": "uint256"
            },
            {
              "internalType": "uint256",
              "name": "subscriptionCharge",
              "type": "uint256"
            },
            {
              "internalType": "uint256",
              "name": "subscribersCount",
              "type": "uint256"
            },
            {
              "internalType": "bool",
              "name": "isOnlySubscribers",
              "type": "bool"
            },
            {
              "internalType": "string",
              "name": "username",
              "type": "string"
            },
            {
              "internalType": "string",
              "name": "bio",
              "type": "string"
            },
            {
              "internalType": "string",
              "name": "pfp",
              "type": "string"
            },
            {
              "internalType": "string",
              "name": "streamId",
              "type": "string"
            },
            {
              "internalType": "string",
              "name": "defaultTitle",
              "type": "string"
            },
            {
              "internalType": "string",
              "name": "defaultThumbnail",
              "type": "string"
            },
            {
              "internalType": "string[]",
              "name": "followers",
              "type": "string[]"
            },
            {
              "internalType": "string[]",
              "name": "follows",
              "type": "string[]"
            },
            {
              "internalType": "address",
              "name": "owner",
              "type": "address"
            }
          ],
          "internalType": "struct Superstream.Profile",
          "name": "",
          "type": "tuple"
        }
      ],
      "stateMutability": "view",
      "type": "function"
    },
    {
      "inputs": [
        {
          "internalType": "string",
          "name": "_username",
          "type": "string"
        }
      ],
      "name": "getProfileByUsername",
      "outputs": [
        {
          "components": [
            {
              "internalType": "uint256",
              "name": "id",
              "type": "uint256"
            },
            {
              "internalType": "uint256",
              "name": "subscriptionCharge",
              "type": "uint256"
            },
            {
              "internalType": "uint256",
              "name": "subscribersCount",
              "type": "uint256"
            },
            {
              "internalType": "bool",
              "name": "isOnlySubscribers",
              "type": "bool"
            },
            {
              "internalType": "string",
              "name": "username",
              "type": "string"
            },
            {
              "internalType": "string",
              "name": "bio",
              "type": "string"
            },
            {
              "internalType": "string",
              "name": "pfp",
              "type": "string"
            },
            {
              "internalType": "string",
              "name": "streamId",
              "type": "string"
            },
            {
              "internalType": "string",
              "name": "defaultTitle",
              "type": "string"
            },
            {
              "internalType": "string",
              "name": "defaultThumbnail",
              "type": "string"
            },
            {
              "internalType": "string[]",
              "name": "followers",
              "type": "string[]"
            },
            {
              "internalType": "string[]",
              "name": "follows",
              "type": "string[]"
            },
            {
              "internalType": "address",
              "name": "owner",
              "type": "address"
            }
          ],
          "internalType": "struct Superstream.Profile",
          "name": "",
          "type": "tuple"
        }
      ],
      "stateMutability": "view",
      "type": "function"
    },
    {
      "inputs": [
        {
          "internalType": "uint256",
          "name": "_id",
          "type": "uint256"
        }
      ],
      "name": "getSessionData",
      "outputs": [
        {
          "components": [
            {
              "internalType": "string",
              "name": "creator",
              "type": "string"
            },
            {
              "internalType": "string",
              "name": "sessionId",
              "type": "string"
            },
            {
              "internalType": "uint256",
              "name": "id",
              "type": "uint256"
            },
            {
              "internalType": "uint256",
              "name": "views",
              "type": "uint256"
            },
            {
              "internalType": "bool",
              "name": "isSubscribersOnly",
              "type": "bool"
            }
          ],
          "internalType": "struct Superstream.Stream",
          "name": "",
          "type": "tuple"
        }
      ],
      "stateMutability": "view",
      "type": "function"
    },
    {
      "inputs": [
        {
          "internalType": "uint256",
          "name": "_id",
          "type": "uint256"
        }
      ],
      "name": "getSessionId",
      "outputs": [
        {
          "internalType": "string",
          "name": "",
          "type": "string"
        }
      ],
      "stateMutability": "view",
      "type": "function"
    },
    {
      "inputs": [
        {
          "internalType": "uint256",
          "name": "_id",
          "type": "uint256"
        }
      ],
      "name": "getSessionWithViewIncrement",
      "outputs": [
        {
          "components": [
            {
              "internalType": "string",
              "name": "creator",
              "type": "string"
            },
            {
              "internalType": "string",
              "name": "sessionId",
              "type": "string"
            },
            {
              "internalType": "uint256",
              "name": "id",
              "type": "uint256"
            },
            {
              "internalType": "uint256",
              "name": "views",
              "type": "uint256"
            },
            {
              "internalType": "bool",
              "name": "isSubscribersOnly",
              "type": "bool"
            }
          ],
          "internalType": "struct Superstream.Stream",
          "name": "",
          "type": "tuple"
        }
      ],
      "stateMutability": "nonpayable",
      "type": "function"
    },
    {
      "inputs": [],
      "name": "getStreamKey",
      "outputs": [
        {
          "internalType": "string",
          "name": "",
          "type": "string"
        }
      ],
      "stateMutability": "view",
      "type": "function"
    },
    {
      "inputs": [
        {
          "internalType": "string",
          "name": "_toUsername",
          "type": "string"
        }
      ],
      "name": "getSubscriptionInfo",
      "outputs": [
        {
          "components": [
            {
              "internalType": "uint256",
              "name": "startedAt",
              "type": "uint256"
            },
            {
              "internalType": "uint256",
              "name": "flowRate",
              "type": "uint256"
            },
            {
              "internalType": "string",
              "name": "toUsername",
              "type": "string"
            },
            {
              "internalType": "address",
              "name": "toAddress",
              "type": "address"
            },
            {
              "internalType": "address",
              "name": "fromAddress",
              "type": "address"
            }
          ],
          "internalType": "struct Superstream.Subscription",
          "name": "",
          "type": "tuple"
        }
      ],
      "stateMutability": "view",
      "type": "function"
    },
    {
      "inputs": [
        {
          "internalType": "string",
          "name": "",
          "type": "string"
        }
      ],
      "name": "isPublished",
      "outputs": [
        {
          "internalType": "bool",
          "name": "",
          "type": "bool"
        }
      ],
      "stateMutability": "view",
      "type": "function"
    },
    {
      "inputs": [
        {
          "internalType": "string",
          "name": "username",
          "type": "string"
        }
      ],
      "name": "isSubscriber",
      "outputs": [
        {
          "internalType": "bool",
          "name": "",
          "type": "bool"
        }
      ],
      "stateMutability": "view",
      "type": "function"
    },
    {
      "inputs": [
        {
          "internalType": "string",
          "name": "_title",
          "type": "string"
        },
        {
          "internalType": "string",
          "name": "_thumbnail",
          "type": "string"
        }
      ],
      "name": "setStreamInfo",
      "outputs": [],
      "stateMutability": "nonpayable",
      "type": "function"
    },
    {
      "inputs": [
        {
          "internalType": "uint256",
          "name": "_flowRate",
          "type": "uint256"
        }
      ],
      "name": "setSubscriptionCharge",
      "outputs": [],
      "stateMutability": "nonpayable",
      "type": "function"
    },
    {
      "inputs": [
        {
          "internalType": "string",
          "name": "_toUsername",
          "type": "string"
        },
        {
          "internalType": "uint256",
          "name": "_flowRate",
          "type": "uint256"
        }
      ],
      "name": "subscribe",
      "outputs": [],
      "stateMutability": "nonpayable",
      "type": "function"
    },
    {
      "inputs": [
        {
          "internalType": "address",
          "name": "receiver",
          "type": "address"
        },
        {
          "internalType": "uint256",
          "name": "_amount",
          "type": "uint256"
        }
      ],
      "name": "tip",
      "outputs": [],
      "stateMutability": "payable",
      "type": "function"
    },
    {
      "inputs": [],
      "name": "toggleSubOnlyForLiveStream",
      "outputs": [],
      "stateMutability": "nonpayable",
      "type": "function"
    },
    {
      "inputs": [
        {
          "internalType": "uint256",
          "name": "_id",
          "type": "uint256"
        }
      ],
      "name": "toggleSubOnlyForPublishedStream",
      "outputs": [],
      "stateMutability": "nonpayable",
      "type": "function"
    },
    {
      "inputs": [
        {
          "internalType": "string",
          "name": "_toUsername",
          "type": "string"
        }
      ],
      "name": "unsubscribe",
      "outputs": [],
      "stateMutability": "nonpayable",
      "type": "function"
    },
    {
      "inputs": [
        {
          "internalType": "string",
          "name": "",
          "type": "string"
        }
      ],
      "name": "usernameTaken",
      "outputs": [
        {
          "internalType": "bool",
          "name": "",
          "type": "bool"
        }
      ],
      "stateMutability": "view",
      "type": "function"
    }
  ],
  "bytecode": "0x60806040526001805534801561001457600080fd5b50600080546001600160a01b031916331790556135a1806100366000396000f3fe6080604052600436106101355760003560e01c8063808e6c4a116100ab578063b7ea4f061161006f578063b7ea4f061461035b578063c7ebd41c1461037b578063e4a48b00146103b6578063f26e818a146103d6578063f6d977b814610411578063fd71d7bf1461043157600080fd5b8063808e6c4a146102c35780638b6f3d31146102f35780638b6fc45214610313578063ae5ff90514610326578063b4cbb2b11461034657600080fd5b806347cc5f9a116100fd57806347cc5f9a146101e9578063495dcbe3146102095780635513802c146102295780636a60a4eb146102495780636e19cb181461026957806370c63fcc1461029657600080fd5b80630b9f8d411461013a57806313be115e14610151578063346582c614610171578063390deb17146101a757806342bd3f8f146101c7575b600080fd5b34801561014657600080fd5b5061014f61045e565b005b34801561015d57600080fd5b5061014f61016c366004612c2b565b6104f4565b34801561017d57600080fd5b5061019161018c366004612cfd565b6107c4565b60405161019e9190612d66565b60405180910390f35b3480156101b357600080fd5b5061014f6101c2366004612dcc565b6109c4565b3480156101d357600080fd5b506101dc610b34565b60405161019e9190612e61565b3480156101f557600080fd5b5061014f610204366004612dcc565b6110dc565b34801561021557600080fd5b5061014f610224366004612fb0565b611242565b34801561023557600080fd5b506101dc610244366004612dcc565b611497565b34801561025557600080fd5b5061014f610264366004612ff5565b611aae565b34801561027557600080fd5b50610289610284366004612cfd565b611bcb565b60405161019e9190613059565b3480156102a257600080fd5b506102b66102b1366004613073565b611d5b565b60405161019e9190613156565b3480156102cf57600080fd5b506102e36102de366004613073565b611fb2565b604051901515815260200161019e565b3480156102ff57600080fd5b5061014f61030e366004612cfd565b612035565b61014f6103213660046131b8565b6120e8565b34801561033257600080fd5b5061014f610341366004612ff5565b6121c3565b34801561035257600080fd5b50610289612388565b34801561036757600080fd5b50610191610376366004612cfd565b612429565b34801561038757600080fd5b506102e3610396366004612dcc565b805160208183018101805160078252928201919093012091525460ff1681565b3480156103c257600080fd5b5061014f6103d13660046131f0565b61260e565b3480156103e257600080fd5b506102e36103f1366004612dcc565b805160208183018101805160068252928201919093012091525460ff1681565b34801561041d57600080fd5b5061014f61042c366004612cfd565b6127bf565b34801561043d57600080fd5b5061045161044c366004612dcc565b612883565b60405161019e9190613250565b33600090815260056020526040808220905160049161047c916132ea565b908152604051908190036020019020600c8101549091506001600160a01b031633146104c35760405162461bcd60e51b81526004016104ba90613360565b60405180910390fd5b600381015460ff1615156001036104e157600301805460ff19169055565b60038101805460ff191660011790555b50565b6006856040516105049190613386565b9081526040519081900360200190205460ff16156105645760405162461bcd60e51b815260206004820152601a60248201527f557365726e616d6520697320416c72656164792054616b656e2100000000000060448201526064016104ba565b61056c612a53565b6080810186905260e0810183905260a0810185905260c0810184905260408051602081810183526000825261012084019190915281518083018352601481527344656661756c742053747265616d205469746c6560601b9181019190915261010083015233610180830152516001906006906105e9908990613386565b908152604051908190036020018120805492151560ff1990931692909217909155819060049061061a908990613386565b9081526040805160209281900383019020835181559183015160018301558201516002820155606082015160038201805460ff19169115159190911790556080820151600482019061066c90826133f1565b5060a0820151600582019061068190826133f1565b5060c0820151600682019061069690826133f1565b5060e082015160078201906106ab90826133f1565b5061010082015160088201906106c190826133f1565b5061012082015160098201906106d790826133f1565b5061014082015180516106f491600a840191602090910190612ac6565b50610160820151805161071191600b840191602090910190612ac6565b506101809190910151600c90910180546001600160a01b0319166001600160a01b0390921691909117905533600090815260056020526040902061075587826133f1565b5033600090815260036020526040902061076f83826133f1565b507fe478d3237a74c8837099383b4a89ced58ff94ec3d22eb2218bf14960b1c2354e8160405161079f9190612e61565b60405180910390a1600180549060006107b7836134c7565b9190505550505050505050565b6107f86040518060a00160405280606081526020016060815260200160008152602001600081526020016000151581525090565b604080516000808252602080830180855283519020868352600290915290839020909261082b92600190920191016132ea565b604051602081830303815290604052805190602001200361085e5760405162461bcd60e51b81526004016104ba906134e0565b60008281526002602052604090819020815160a08101909252805482908290610886906132b0565b80601f01602080910402602001604051908101604052809291908181526020018280546108b2906132b0565b80156108ff5780601f106108d4576101008083540402835291602001916108ff565b820191906000526020600020905b8154815290600101906020018083116108e257829003601f168201915b50505050508152602001600182018054610918906132b0565b80601f0160208091040260200160405190810160405280929190818152602001828054610944906132b0565b80156109915780601f1061096657610100808354040283529160200191610991565b820191906000526020600020905b81548152906001019060200180831161097457829003601f168201915b5050509183525050600282015460208201526003820154604082015260049091015460ff16151560609091015292915050565b33600090815260056020526040812080546109de906132b0565b80601f0160208091040260200160405190810160405280929190818152602001828054610a0a906132b0565b8015610a575780601f10610a2c57610100808354040283529160200191610a57565b820191906000526020600020905b815481529060010190602001808311610a3a57829003601f168201915b50505050509050600481604051610a6e9190613386565b90815260405160209181900382019020600b018054600181018255600091825291902001610a9c83826133f1565b50600482604051610aad9190613386565b90815260405160209181900382019020600a018054600181018255600091825291902001610adb82826133f1565b5081604051610aea9190613386565b604051809103902081604051610b009190613386565b604051908190038120907f60e966648a72c66e565c502cdeab4c996d5ba02bdffc84f2f4539eb413c5cb2890600090a35050565b610b3c612a53565b33600090815260056020526040908190209051600491610b5b916132ea565b9081526040805191829003602090810183206101a08401835280548452600181015491840191909152600281015491830191909152600381015460ff1615156060830152600481018054608084019190610bb4906132b0565b80601f0160208091040260200160405190810160405280929190818152602001828054610be0906132b0565b8015610c2d5780601f10610c0257610100808354040283529160200191610c2d565b820191906000526020600020905b815481529060010190602001808311610c1057829003601f168201915b50505050508152602001600582018054610c46906132b0565b80601f0160208091040260200160405190810160405280929190818152602001828054610c72906132b0565b8015610cbf5780601f10610c9457610100808354040283529160200191610cbf565b820191906000526020600020905b815481529060010190602001808311610ca257829003601f168201915b50505050508152602001600682018054610cd8906132b0565b80601f0160208091040260200160405190810160405280929190818152602001828054610d04906132b0565b8015610d515780601f10610d2657610100808354040283529160200191610d51565b820191906000526020600020905b815481529060010190602001808311610d3457829003601f168201915b50505050508152602001600782018054610d6a906132b0565b80601f0160208091040260200160405190810160405280929190818152602001828054610d96906132b0565b8015610de35780601f10610db857610100808354040283529160200191610de3565b820191906000526020600020905b815481529060010190602001808311610dc657829003601f168201915b50505050508152602001600882018054610dfc906132b0565b80601f0160208091040260200160405190810160405280929190818152602001828054610e28906132b0565b8015610e755780601f10610e4a57610100808354040283529160200191610e75565b820191906000526020600020905b815481529060010190602001808311610e5857829003601f168201915b50505050508152602001600982018054610e8e906132b0565b80601f0160208091040260200160405190810160405280929190818152602001828054610eba906132b0565b8015610f075780601f10610edc57610100808354040283529160200191610f07565b820191906000526020600020905b815481529060010190602001808311610eea57829003601f168201915b50505050508152602001600a8201805480602002602001604051908101604052809291908181526020016000905b82821015610fe1578382906000526020600020018054610f54906132b0565b80601f0160208091040260200160405190810160405280929190818152602001828054610f80906132b0565b8015610fcd5780601f10610fa257610100808354040283529160200191610fcd565b820191906000526020600020905b815481529060010190602001808311610fb057829003601f168201915b505050505081526020019060010190610f35565b505050508152602001600b8201805480602002602001604051908101604052809291908181526020016000905b828210156110ba57838290600052602060002001805461102d906132b0565b80601f0160208091040260200160405190810160405280929190818152602001828054611059906132b0565b80156110a65780601f1061107b576101008083540402835291602001916110a6565b820191906000526020600020905b81548152906001019060200180831161108957829003601f168201915b50505050508152602001906001019061100e565b50505090825250600c91909101546001600160a01b0316602090910152919050565b3360009081526009602052604080822090516110f9908490613386565b908152604051908190036020019020600301546001600160a01b0316036111625760405162461bcd60e51b815260206004820152601b60248201527f537562736372697074696f6e20646f6573206e6f74206578697374000000000060448201526064016104ba565b6004816040516111729190613386565b90815260405190819003602001902060020180549060006111928361350f565b9091555050336000908152600960205260409081902090516111b5908390613386565b9081526040519081900360200190206000808255600182018190556111dd6002830182612b1c565b506003810180546001600160a01b031990811690915560049091018054909116905560405161120d908290613386565b6040519081900381209033907fb808084c2f3fe56de9cba89da339ed7c671da54a42c645035e217cd4835e672f90600090a350565b33600090815260096020526040808220905161125f908590613386565b908152604051908190036020019020600301546001600160a01b0316146112c85760405162461bcd60e51b815260206004820152601a60248201527f537562736372697074696f6e20616c726561647920657869737400000000000060448201526064016104ba565b806004836040516112d99190613386565b90815260200160405180910390206001015411156113325760405162461bcd60e51b8152602060048201526016602482015275496e73756666696369656e7420666c6f77207261746560501b60448201526064016104ba565b60006004836040516113449190613386565b908152604080519182900360209081018320600c015460a0840183524284528382018690528383018790526001600160a01b0316606084018190523360808501819052600090815260099092529082902091519093506113a5908690613386565b90815260408051602092819003830190208351815591830151600183015582015160028201906113d590826133f1565b5060608201516003820180546001600160a01b03199081166001600160a01b039384161790915560809093015160049283018054909416911617909155604051611420908590613386565b9081526040519081900360200190206002018054906000611440836134c7565b9190505550806001600160a01b0316336001600160a01b03167f7cb477f5734710a7ff2380668eab7dd174fe3063832843ec235b87b940c3f678858560405161148a929190613526565b60405180910390a3505050565b61149f612a53565b60006001600160a01b03166004836040516114ba9190613386565b908152604051908190036020019020600c01546001600160a01b03160361151c5760405162461bcd60e51b8152602060048201526016602482015275141c9bd99a5b1948191bd95cc81b9bdd08195e1a5cdd60521b60448201526064016104ba565b60048260405161152c9190613386565b9081526040805191829003602090810183206101a08401835280548452600181015491840191909152600281015491830191909152600381015460ff1615156060830152600481018054608084019190611585906132b0565b80601f01602080910402602001604051908101604052809291908181526020018280546115b1906132b0565b80156115fe5780601f106115d3576101008083540402835291602001916115fe565b820191906000526020600020905b8154815290600101906020018083116115e157829003601f168201915b50505050508152602001600582018054611617906132b0565b80601f0160208091040260200160405190810160405280929190818152602001828054611643906132b0565b80156116905780601f1061166557610100808354040283529160200191611690565b820191906000526020600020905b81548152906001019060200180831161167357829003601f168201915b505050505081526020016006820180546116a9906132b0565b80601f01602080910402602001604051908101604052809291908181526020018280546116d5906132b0565b80156117225780601f106116f757610100808354040283529160200191611722565b820191906000526020600020905b81548152906001019060200180831161170557829003601f168201915b5050505050815260200160078201805461173b906132b0565b80601f0160208091040260200160405190810160405280929190818152602001828054611767906132b0565b80156117b45780601f10611789576101008083540402835291602001916117b4565b820191906000526020600020905b81548152906001019060200180831161179757829003601f168201915b505050505081526020016008820180546117cd906132b0565b80601f01602080910402602001604051908101604052809291908181526020018280546117f9906132b0565b80156118465780601f1061181b57610100808354040283529160200191611846565b820191906000526020600020905b81548152906001019060200180831161182957829003601f168201915b5050505050815260200160098201805461185f906132b0565b80601f016020809104026020016040519081016040528092919081815260200182805461188b906132b0565b80156118d85780601f106118ad576101008083540402835291602001916118d8565b820191906000526020600020905b8154815290600101906020018083116118bb57829003601f168201915b50505050508152602001600a8201805480602002602001604051908101604052809291908181526020016000905b828210156119b2578382906000526020600020018054611925906132b0565b80601f0160208091040260200160405190810160405280929190818152602001828054611951906132b0565b801561199e5780601f106119735761010080835404028352916020019161199e565b820191906000526020600020905b81548152906001019060200180831161198157829003601f168201915b505050505081526020019060010190611906565b505050508152602001600b8201805480602002602001604051908101604052809291908181526020016000905b82821015611a8b5783829060005260206000200180546119fe906132b0565b80601f0160208091040260200160405190810160405280929190818152602001828054611a2a906132b0565b8015611a775780601f10611a4c57610100808354040283529160200191611a77565b820191906000526020600020905b815481529060010190602001808311611a5a57829003601f168201915b5050505050815260200190600101906119df565b50505090825250600c91909101546001600160a01b031660209091015292915050565b33600081815260056020526040908190209051600491611acd916132ea565b908152604051908190036020019020600c01546001600160a01b031614611b065760405162461bcd60e51b81526004016104ba90613360565b336000908152600560205260409081902090518291600491611b2891906132ea565b90815260200160405180910390206009019081611b4591906133f1565b50336000908152600560205260409081902090518391600491611b6891906132ea565b90815260200160405180910390206008019081611b8591906133f1565b50336001600160a01b03167fae0b535f62709971f899532b63899795ae0b54718816b97fde69f9ea0131398383604051611bbf9190613059565b60405180910390a25050565b6000818152600260209081526040918290209151606092611bee929091016132ea565b60408051601f19818403018152828252805160209182012033600090815260058352929092209192611c219291016132ea565b6040516020818303038152906040528051906020012014611c545760405162461bcd60e51b81526004016104ba90613360565b6040805160008082526020808301808552835190208683526002909152908390209092611c8792600190920191016132ea565b6040516020818303038152906040528051906020012003611cba5760405162461bcd60e51b81526004016104ba906134e0565b60008281526002602052604090206001018054611cd6906132b0565b80601f0160208091040260200160405190810160405280929190818152602001828054611d02906132b0565b8015611d4f5780601f10611d2457610100808354040283529160200191611d4f565b820191906000526020600020905b815481529060010190602001808311611d3257829003601f168201915b50505050509050919050565b606060088383604051611d6f929190613548565b9081526020016040518091039020805480602002602001604051908101604052809291908181526020016000905b82821015611fa557838290600052602060002090600502016040518060a001604052908160008201548152602001600182018054611dda906132b0565b80601f0160208091040260200160405190810160405280929190818152602001828054611e06906132b0565b8015611e535780601f10611e2857610100808354040283529160200191611e53565b820191906000526020600020905b815481529060010190602001808311611e3657829003601f168201915b50505050508152602001600282018054611e6c906132b0565b80601f0160208091040260200160405190810160405280929190818152602001828054611e98906132b0565b8015611ee55780601f10611eba57610100808354040283529160200191611ee5565b820191906000526020600020905b815481529060010190602001808311611ec857829003601f168201915b50505050508152602001600382018054611efe906132b0565b80601f0160208091040260200160405190810160405280929190818152602001828054611f2a906132b0565b8015611f775780601f10611f4c57610100808354040283529160200191611f77565b820191906000526020600020905b815481529060010190602001808311611f5a57829003601f168201915b5050509183525050600491909101546001600160a01b03166020918201529082526001929092019101611d9d565b5050505090505b92915050565b600060048383604051611fc6929190613548565b908152604080519182900360209081018320600c015433600090815260099092529190206001600160a01b03909116916120039086908690613548565b908152604051908190036020019020600301546001600160a01b03160361202c57506001611fac565b50600092915050565b33600090815260056020526040908190209051600491612054916132ea565b908152604051908190036020019020600c0154336001600160a01b03909116146120905760405162461bcd60e51b81526004016104ba90613360565b60008181526002602052604090206004015460ff1615156001036120c9576000908152600260205260409020600401805460ff19169055565b6000818152600260205260409020600401805460ff1916600117905550565b6000826001600160a01b03168260405160006040518083038185875af1925050503d8060008114612135576040519150601f19603f3d011682016040523d82523d6000602084013e61213a565b606091505b50909150506001811515146121865760405162461bcd60e51b815260206004820152601260248201527104661696c656420746f2073656e64205469760741b60448201526064016104ba565b6040518281526001600160a01b0384169033907f91d9aec1bf873fb589194ec67c304522c89e9e1de41ed647cf135fb41226befc9060200161148a565b6040805160a0810182524281526020808201859052818301849052336000908152600590915291822080546060830191906121fd906132b0565b80601f0160208091040260200160405190810160405280929190818152602001828054612229906132b0565b80156122765780601f1061224b57610100808354040283529160200191612276565b820191906000526020600020905b81548152906001019060200180831161225957829003601f168201915b50505050508152602001336001600160a01b0316815250905060088360405161229f9190613386565b908152604051602091819003820190208054600180820183556000928352918390208451600590920201908155918301518392918201906122e090826133f1565b50604082015160028201906122f590826133f1565b506060820151600382019061230a90826133f1565b5060809190910151600490910180546001600160a01b0319166001600160a01b03909216919091179055604051612342908490613386565b60405180910390207ffd6e27b7a188c709e276f188b30ff794c7ede9519fea7dff85d7df0566e9d3f4824260405161237b929190613558565b60405180910390a2505050565b3360009081526003602052604090208054606091906123a6906132b0565b80601f01602080910402602001604051908101604052809291908181526020018280546123d2906132b0565b801561241f5780601f106123f45761010080835404028352916020019161241f565b820191906000526020600020905b81548152906001019060200180831161240257829003601f168201915b5050505050905090565b61245d6040518060a00160405280606081526020016060815260200160008152602001600081526020016000151581525090565b604080516000808252602080830180855283519020868352600290915290839020909261249092600190920191016132ea565b60405160208183030381529060405280519060200120036124c35760405162461bcd60e51b81526004016104ba906134e0565b60008281526002602052604090206004015460ff16151560010361258f573360008181526009602090815260408083208684526002909252918290209151909161250c916132ea565b908152604051908190036020019020600401546001600160a01b0316146125455760405162461bcd60e51b81526004016104ba90613360565b6000828152600260205260408120600301805491612562836134c7565b909155505060008281526002602052604090819020815160a08101909252805482908290610886906132b0565b60008281526002602052604081206003018054916125ac836134c7565b909155505060405133815282907f8639813873f8c50d789afca6a540fc5c6cda69fba5a265dcd7a092787684ff509060200160405180910390a260008281526002602052604090819020815160a08101909252805482908290610886906132b0565b6126426040518060a00160405280606081526020016060815260200160008152602001600081526020016000151581525090565b6020808201849052604080830186905233600090815260059092529020805461266a906132b0565b80601f0160208091040260200160405190810160405280929190818152602001828054612696906132b0565b80156126e35780601f106126b8576101008083540402835291602001916126e3565b820191906000526020600020905b8154815290600101906020018083116126c657829003601f168201915b5050509183525050811515608082015260008481526002602052604090208151829190819061271290826133f1565b506020820151600182019061272790826133f1565b506040828101516002830155606083015160038301556080909201516004909101805460ff191691151591909117905551600190600790612769908690613386565b90815260405160209181900382018120805460ff19169315159390931790925585825233917f36c6b813382449e17bb3195e869666ed514b79cc57d72d04ba60570c935fc7fd910160405180910390a250505050565b336000818152600560205260409081902090516004916127de916132ea565b908152604051908190036020019020600c01546001600160a01b0316146128175760405162461bcd60e51b81526004016104ba90613360565b33600090815260056020526040908190209051829160049161283991906132ea565b908152604051602091819003820181206001019290925582825233917f39ea950d3af580af928afccb0ec59d78c4526c5097a50e30abacc61fef8d16f1910160405180910390a250565b6128c76040518060a0016040528060008152602001600081526020016060815260200160006001600160a01b0316815260200160006001600160a01b031681525090565b3360009081526009602052604080822090516128e4908590613386565b908152604051908190036020019020600301546001600160a01b03160361294d5760405162461bcd60e51b815260206004820152601b60248201527f537562736372697074696f6e20646f6573206e6f74206578697374000000000060448201526064016104ba565b3360009081526009602052604090819020905161296b908490613386565b90815260200160405180910390206040518060a001604052908160008201548152602001600182015481526020016002820180546129a8906132b0565b80601f01602080910402602001604051908101604052809291908181526020018280546129d4906132b0565b8015612a215780601f106129f657610100808354040283529160200191612a21565b820191906000526020600020905b815481529060010190602001808311612a0457829003601f168201915b505050918352505060038201546001600160a01b03908116602083015260049092015490911660409091015292915050565b604051806101a00160405280600081526020016000815260200160008152602001600015158152602001606081526020016060815260200160608152602001606081526020016060815260200160608152602001606081526020016060815260200160006001600160a01b031681525090565b828054828255906000526020600020908101928215612b0c579160200282015b82811115612b0c5782518290612afc90826133f1565b5091602001919060010190612ae6565b50612b18929150612b56565b5090565b508054612b28906132b0565b6000825580601f10612b38575050565b601f0160209004906000526020600020908101906104f19190612b73565b80821115612b18576000612b6a8282612b1c565b50600101612b56565b5b80821115612b185760008155600101612b74565b634e487b7160e01b600052604160045260246000fd5b600082601f830112612baf57600080fd5b813567ffffffffffffffff80821115612bca57612bca612b88565b604051601f8301601f19908116603f01168101908282118183101715612bf257612bf2612b88565b81604052838152866020858801011115612c0b57600080fd5b836020870160208301376000602085830101528094505050505092915050565b600080600080600060a08688031215612c4357600080fd5b853567ffffffffffffffff80821115612c5b57600080fd5b612c6789838a01612b9e565b96506020880135915080821115612c7d57600080fd5b612c8989838a01612b9e565b95506040880135915080821115612c9f57600080fd5b612cab89838a01612b9e565b94506060880135915080821115612cc157600080fd5b612ccd89838a01612b9e565b93506080880135915080821115612ce357600080fd5b50612cf088828901612b9e565b9150509295509295909350565b600060208284031215612d0f57600080fd5b5035919050565b60005b83811015612d31578181015183820152602001612d19565b50506000910152565b60008151808452612d52816020860160208601612d16565b601f01601f19169290920160200192915050565b602081526000825160a06020840152612d8260c0840182612d3a565b90506020840151601f19848303016040850152612d9f8282612d3a565b91505060408401516060840152606084015160808401526080840151151560a08401528091505092915050565b600060208284031215612dde57600080fd5b813567ffffffffffffffff811115612df557600080fd5b612e0184828501612b9e565b949350505050565b600082825180855260208086019550808260051b84010181860160005b84811015612e5457601f19868403018952612e42838351612d3a565b98840198925090830190600101612e26565b5090979650505050505050565b6020815281516020820152602082015160408201526040820151606082015260006060830151612e95608084018215159052565b5060808301516101a08060a0850152612eb26101c0850183612d3a565b915060a0850151601f19808685030160c0870152612ed08483612d3a565b935060c08701519150808685030160e0870152612eed8483612d3a565b935060e08701519150610100818786030181880152612f0c8584612d3a565b945080880151925050610120818786030181880152612f2b8584612d3a565b945080880151925050610140818786030181880152612f4a8584612d3a565b945080880151925050610160818786030181880152612f698584612e09565b945080880151925050610180818786030181880152612f888584612e09565b94508088015192505050612fa6828601826001600160a01b03169052565b5090949350505050565b60008060408385031215612fc357600080fd5b823567ffffffffffffffff811115612fda57600080fd5b612fe685828601612b9e565b95602094909401359450505050565b6000806040838503121561300857600080fd5b823567ffffffffffffffff8082111561302057600080fd5b61302c86838701612b9e565b9350602085013591508082111561304257600080fd5b5061304f85828601612b9e565b9150509250929050565b60208152600061306c6020830184612d3a565b9392505050565b6000806020838503121561308657600080fd5b823567ffffffffffffffff8082111561309e57600080fd5b818501915085601f8301126130b257600080fd5b8135818111156130c157600080fd5b8660208285010111156130d357600080fd5b60209290920196919550909350505050565b805182526000602082015160a0602085015261310460a0850182612d3a565b90506040830151848203604086015261311d8282612d3a565b915050606083015184820360608601526131378282612d3a565b6080948501516001600160a01b03169590940194909452509092915050565b6000602080830181845280855180835260408601915060408160051b870101925083870160005b828110156131ab57603f198886030184526131998583516130e5565b9450928501929085019060010161317d565b5092979650505050505050565b600080604083850312156131cb57600080fd5b82356001600160a01b03811681146131e257600080fd5b946020939093013593505050565b60008060006060848603121561320557600080fd5b83359250602084013567ffffffffffffffff81111561322357600080fd5b61322f86828701612b9e565b9250506040840135801515811461324557600080fd5b809150509250925092565b6020815281516020820152602082015160408201526000604083015160a0606084015261328060c0840182612d3a565b60608501516001600160a01b039081166080868101919091529095015190941660a0909301929092525090919050565b600181811c908216806132c457607f821691505b6020821081036132e457634e487b7160e01b600052602260045260246000fd5b50919050565b60008083546132f8816132b0565b60018281168015613310576001811461332557613354565b60ff1984168752821515830287019450613354565b8760005260208060002060005b8581101561334b5781548a820152908401908201613332565b50505082870194505b50929695505050505050565b6020808252600c908201526b155b985d5d1a1bdc9a5e995960a21b604082015260600190565b60008251613398818460208701612d16565b9190910192915050565b601f8211156133ec57600081815260208120601f850160051c810160208610156133c95750805b601f850160051c820191505b818110156133e8578281556001016133d5565b5050505b505050565b815167ffffffffffffffff81111561340b5761340b612b88565b61341f8161341984546132b0565b846133a2565b602080601f831160018114613454576000841561343c5750858301515b600019600386901b1c1916600185901b1785556133e8565b600085815260208120601f198616915b8281101561348357888601518255948401946001909101908401613464565b50858210156134a15787850151600019600388901b60f8161c191681555b5050505050600190811b01905550565b634e487b7160e01b600052601160045260246000fd5b6000600182016134d9576134d96134b1565b5060010190565b60208082526015908201527414dd1c99585b48111bd95cc8139bdd08115e1a5cdd605a1b604082015260600190565b60008161351e5761351e6134b1565b506000190190565b6040815260006135396040830185612d3a565b90508260208301529392505050565b8183823760009101908152919050565b60408152600061353960408301856130e556fea26469706673582212201a3c23edc9e385e09ec69d2051cbba5499d34a8d49a964c88d50a9e5e71da2f864736f6c63430008140033",
  "linkReferences": {},
  "deployedLinkReferences": {}
}